:020000040800F2
:1000000000200020319300085991000861910008F8
:1000100000000000000000000000000000000000E0
:1000200000000000000000000000000069910008CE
:100030000000000000000000739100087D9100089E
:100040008193000881930008819300088193000840
:100050008193000881930008819300088193000830
:1000600000000000819300088990000819910008A1
:10007000A189000881930008000000008193000816
:10008000000000005D8C000800000000000000007F
:10009000819300080000000081930008819300080C
:1000A000819300088193000881930008A1900008C3
:1000B000B9900008819300080000000000000000D3
:1000C00010B5064C2378002B07D1054B002B02D02E
:1000D000044800E000BF0123237010BDD4010020BC
:1000E00000000000C8BD0008044B10B5002B03D071
:1000F0000349044800E000BF10BDC04600000000F6
:10010000D8010020C8BD0008002243088B4274D3E8
:1001100003098B425FD3030A8B4244D3030B8B4208
:1001200028D3030C8B420DD3FF22090212BA030C11
:100130008B4202D31212090265D0030B8B4219D3F2
:1001400000E0090AC30B8B4201D3CB03C01A524112
:10015000830B8B4201D38B03C01A5241430B8B425A
:1001600001D34B03C01A5241030B8B4201D30B0343
:10017000C01A5241C30A8B4201D3CB02C01A52416A
:10018000830A8B4201D38B02C01A5241430A8B422D
:1001900001D34B02C01A5241030A8B4201D30B0216
:1001A000C01A5241CDD2C3098B4201D3CB01C01A30
:1001B000524183098B4201D38B01C01A524143093A
:1001C0008B4201D34B01C01A524103098B4201D328
:1001D0000B01C01A5241C3088B4201D3CB00C01A95
:1001E000524183088B4201D38B00C01A524143080D
:1001F0008B4201D34B00C01A5241411A00D2014632
:10020000524110467047FFE701B5002000F006F8A4
:1002100002BDC0460029F7D076E770477047C04658
:10022000844608006146FFE71FB500F097FC0028F0
:1002300001D40021C8421FBD10B500F01FFC404290
:10024000013010BD10B500F089FC002801DB002052
:1002500010BD012010BDC04610B500F07FFC002885
:1002600001DD002010BD012010BDC04610B500F01A
:100270002DFC002801DC002010BD012010BDC0466F
:1002800010B500F023FC002801DA002010BD012089
:1002900010BDC046002B11D1002A0FD1002900D17A
:1002A000002802D00021C943080007B4024802A177
:1002B0004018029003BDC04665FFFFFF03B46846C7
:1002C00001B5029800F006F8019B9E4602B00CBCF6
:1002D0007047C046F0B557464E464546DE46E0B547
:1002E00004000D009246994683B08B4230D82DD041
:1002F0004946504600F038FE29000600200000F074
:1003000033FE331A9846203B34D49B4653465A4614
:10031000934042461F00534693401E00AF423BD8D5
:10032000AF4200D179E05B46A41BBD41002B00DA4F
:1003300076E0002200230092019301235A46934065
:100340000193012342469340009329E08242CFD992
:1003500000220023009201930C9B002B01D01C6013
:100360005D600098019903B0F0BCBB46B246A94657
:10037000A046F0BD42469B4620239B1A5246DA40D7
:10038000414613004A468A40170042461F435346DF
:1003900093401E00AF42C3D9002200230092019374
:1003A0004346002BD8D0FB0772081A4346467B0809
:1003B0000EE0AB4201D1A2420CD8A41A9D4101200B
:1003C00024196D410021013E24184D41002E06D014
:1003D000AB42EED9013E24196D41002EF8D10098B0
:1003E00001995B4600196941002B24DB2B005A461A
:1003F0004446D3402A00E2401C005B461500002B17
:100400002ADB26009E40330026004746BE403200CD
:10041000801A9941009001919EE7A342BCD882E7DF
:100420004246202300219B1A0022009101920122C2
:10043000DA40019285E7424620239B1A2A0046466D
:100440009A402300F340444613432A00E2401C0034
:100450005B461500002BD4DA42462F0020232600ED
:1004600097409B1ADE403B003343CDE7F8B54B0283
:100470005A0A94464A00C90FCE4647468946450067
:1004800046022D0E120E80B59909770AC40FB609DF
:10049000AB1A4C4520D0002B0CDD002A34D10029AA
:1004A0002AD05A1E012B00D18FE0FF2B00D1CDE0C6
:1004B00013002FE0002B60D0531B002D00D0EEE086
:1004C000002E00D13EE15C1E012B00D16BE1FF2B21
:1004D00000D1B9E02300E7E0002B00DCA4E0002A13
:1004E00069D0FF2D00D1B1E08022D20411431B2B33
:1004F00000DCE9E02B000536F708FF2B00D1A5E072
:100500007A02520AD8B230E0FF2D00D19EE080225C
:10051000D204114301201B2B08DC08002022D84004
:10052000D31A99400B005A1E93411843361A73018F
:1005300000D471E0B601B709380000F0F7FC3B00C9
:100540000538834085424DDDB44E2D1A1E405A07B2
:1005500068D00F221340042B64D00436730161D598
:10056000681CFE2D54D1FF200022C0051043E40773
:100570002043C0BCB946B046F8BDFE229046681C78
:100580000200404610426BD1002D00D0DDE0002E6D
:1005900000D102E10029B3D08022771AD204174299
:1005A00000D136E14C468E1B61D00120164230D17D
:1005B0000023F708A4E700299ED05A1E012B00D182
:1005C000CAE0FF2B42D0130091E7711A4B0100D40F
:1005D000D1E08F01BF09380000F0A8FC3B000538CE
:1005E000834001252022401B0130121A1E00934037
:1005F000C6405A1E93411E4339D0730700D11BE1F8
:100600000F2300253340042BA7D1012072017CD594
:10061000C0B2B201520AA8E7730703D00F233340D8
:10062000042B9AD12B0067E7002B23D0531B002DFE
:100630007BD1002E00D186E05D1E012B00D18BE026
:10064000FF2B02D02B0075E04C466746002F00D1EF
:1006500089E78022D2033A435202FF20520A84E7FC
:10066000771A7B016BD4002F00D065E700240020AF
:1006700000227AE7FE226B1C1A4249D1002D00D0DD
:100680009FE0002E00D1BAE0002900D1CFE072181F
:10069000530100D4CDE092010120520A65E7FF2A00
:1006A000D2D08020C004064301201B2B08DC300080
:1006B0002024D840E31A9E4033005C1EA341184317
:1006C0004C4615000E1A32E708002022D840D31AF3
:1006D00099400B005A1E93410343F61873019BD5B2
:1006E0000135FF2D00D13EE701234D49720833400B
:1006F0000A401A431600530704D00F231340042B5B
:1007000000D02AE7730100D52AE72B00F708F7E6A7
:10071000FF2B00D127E7711849084A072FD00F2275
:100720000A40042A2BD00E1DE6E6FF2A8DD0802039
:10073000C00406431B2B24DD13004E1DDCE64C4693
:100740008F1BF9E64C460E00D6E6002E49D1002953
:1007500068D067464C467CE77018430174D5304931
:1007600040080140430709D00F230340042B05D064
:1007700002230E1DC0E60123CF08C1E60223CF08E5
:10078000BEE620253000D840EB1A9E4033005D1EA7
:10079000AB41034315005E18A0E7002900D165E7CF
:1007A0004C466746ACE68F1B7B012ED5BF01BF09C7
:1007B000380000F0BBFB3B00053883404C46013558
:1007C00010E7002E00D140E7002900D141E7802347
:1007D000DB039F4200D23CE79C4500D339E76746E4
:1007E00037E7002900D134E78023DB039F4200D2A2
:1007F0002FE79C4500D32CE74C46674629E70029A4
:1008000000D134E70023CF087AE64C460123FF08E5
:1008100076E6002F00D129E7FF0871E6FFFFFFFB16
:10082000FFFFFF7D80220024FF20D2039DE60023EE
:1008300066E60023D70863E60120720100D5E7E6EB
:1008400031000023CF085BE60123C70858E6C04605
:10085000F0B546464F46D6464502C0B5C30F4700E1
:1008600098460E1C6D0A3F0E5BD0FF2F21D08023CF
:10087000ED00DB041D43002399469A467F3F740236
:100880007300640A1B0EF60F002B20D0FF2B43D001
:1008900080220020E400D20414437F3B4246FF1A2A
:1008A0004B4672400F2B00D99DE071499B00CB58FD
:1008B0009F46002D5AD108239946063B74029A465A
:1008C0007300FF27640A1B0EF60F002BDED1002CED
:1008D0003BD1012342464946724019430E2918D89C
:1008E0006448890041588F465346022B00D1B8E036
:1008F000032B6ED042462C00012B40D10020002457
:10090000C0052043D2071043E0BCBA46B146A84612
:10091000F0BDFF200024F3E7002C20D10223FF3F8D
:10092000D8E7002D05D104239946033B00279A46BA
:10093000A5E7280000F0FAFA7627431F9D40002320
:100940007F4299469A463F1A99E7200000F0EEFA56
:10095000431F9C4076235B421B1A00209EE7032323
:100960004A461A4391460320FC3397E70C239946E5
:10097000093BFF279A4682E703282CD03200380033
:100980007F30002847DD630704D00F232340042B6A
:1009900000D00434230103D53800374B80301C408D
:1009A000FE28B6DCA401640AC0B2A9E780240022B4
:1009B000FF20E403A4E78023DB031D4201D01C4297
:1009C0000BD08024E4032C4364024246FF20640AD7
:1009D00096E746462C008023DB031C43640232006A
:1009E000FF20640A8CE76D01600185422DD21B2334
:1009F0000024013F0126290064006D00002901DB6D
:100A0000854201D32D1A3443013B002BF3D16B1ED9
:100A10009D412C43B3E701231B1A1B2B00DD6DE71F
:100A200021009E37D940BC400B00611E8C412343FE
:100A3000590704D00F211940042900D0043359016B
:100A400013D49B0100205C0A5AE71A2301242D1AB3
:100A5000D0E7981E43425841404232000024C0B2C1
:100A60004EE74246FF2000244AE70120002447E7E2
:100A7000E0BD000820BE0008FFFFFFF770B5420090
:100A80004E024C0045026D0A120EC30F760A240E68
:100A9000C90FFF2A10D0FF2C0CD00120A2420AD18E
:100AA000B54208D18B420FD0002A04D12800431E42
:100AB000984100E0012070BD0120FF2CFBD135439F
:100AC000F9D14B401800F6E70020F4E730B54200BA
:100AD00044024D02C30F4800640A120E6D0A000E54
:100AE000C90FFF2A18D0FF280AD0002A1ED10028DB
:100AF0000AD1002D29D0002C2DD14800013830BD5D
:100B0000002D25D1002A01D1002CF6D08B4219D01E
:100B100001205B421843F2E7002C19D1FF28F7D1DE
:100B2000002D15D100208B42F2D1E8E70028EFD04C
:100B30008B42EDD18242EBDC04DBAC42E8D80020F2
:100B4000AC42DCD258000138D9E7002CD7D0DFE71F
:100B500002204042D3E78B42DAD1EEE730B54200C3
:100B600044024D02C30F4800640A120E6D0A000EC3
:100B7000C90FFF2A17D0FF280AD0002A1BD100284E
:100B80000AD1002D1DD0002C2DD14800013811E0D4
:100B9000002D0ED1002A01D1002CF6D08B420CD1B1
:100BA0005800013806E0002C03D1FF2805D1002DA4
:100BB00015D0022030BD002806D101205B42184329
:100BC000F8E7002CF6D0F8E78B42F6D18242F4DC4D
:100BD000E6DBAC42F1D80020AC42EBD2E0E70020EB
:100BE0008B42EAD1E6E78B42E7D1F2E7F0B54F4618
:100BF0004646D6464400C0B546020F1C760A240E6F
:100C0000C50F002C00D1DAE0FF2C74D08023F60051
:100C1000DB041E43002399469A467F3C7B025B0A15
:100C200098467B001B0EFF0F002B74D0FF2B00D1CA
:100C30008EE042468021D200C90411437F3B2A0046
:100C4000E4184B467A408846D2B20A2B75DC4B46F4
:100C50000020022B0FDD494601238B40A621C9004D
:100C60000B4269D1902189000B4200D000E188211C
:100C7000194200D0F5E041460904090C434608003A
:100C8000350C36041B0C360C704369435E435D43E0
:100C90007618030C9B19994203D9802149028C468E
:100CA000654400041904000C09188E01701E864169
:100CB0001B0C890E5B190E439B011E431B016CD458
:100CC00023007F33002B00DCB1E0150071070BD04F
:100CD0000F2021003040042806D00436320103D50D
:100CE0006E4B1E400B008033FE2B00DDBDE0B201D9
:100CF000520ADBB248E0002E00D092E00823994669
:100D0000063B9A467B025B0A98467B00FF241B0E3B
:100D1000FF0F002B8AD14246002A64D14946013296
:100D2000114389460A2908DC7D400120EAB20229E4
:100D300091DC1500002227E015005346022B00D15C
:100D400093E0032B1AD0012B2CD1002300221BE0AF
:100D50004346FF34002B55D003214B460B4319006B
:100D60000A2B00DC92E00F2B00D08CE08022D20313
:100D7000164203D04346134200D17DE08022D203C5
:100D800032435202520AFF23D805ED07104328438D
:100D9000E0BCBA46B146A846F0BD01231500710873
:100DA0001E400E4323008033611C002B41DD72077F
:100DB00094D00F223240042A00D08EE78EE7002E16
:100DC00005D104239946033B00249A4626E73000C8
:100DD00000F0ACF87624431F9E40002364429946FD
:100DE0009A46241A1AE7404600F0A0F84B46241A07
:100DF000763C0A2BA1DC4346053883407D4098466B
:100E0000EAB224E74A46023313432A007A40D2B2B8
:100E10000A2B92DC49461500002926D0994602206B
:100E200019E70C239946093BFF249A46F6E615007C
:100E300021000122D31A1B2B00DD86E79E313200F0
:100E40008E40DA40731E9E413243530704D00F2375
:100E50001340042B00D00432530110D5012300228B
:100E600092E73D004646824667E7FF2300228BE774
:100E700080220025D20386E73D001A4383E79201D2
:100E80000023520A80E73D00464677E72A00012307
:100E90007A408B400320D2B2E9E6C046FFFFFFF75D
:100EA00010B5041E0DD000F041F89E231B1A962B9E
:100EB0000CDC082834D0083884406402640AD8B2B4
:100EC00001E000200024C005204310BD992B13DC55
:100ED000421F9440144A224061071CD00F21214038
:100EE000042918D00432D408520115D59F23640276
:100EF000181A640AC0B2E6E7020021001B329140D2
:100F00000A00511E8A410521091ACC401443064AA1
:100F100022406107E2D1D4086402640AD8B2D2E761
:100F20006402640A8E30CEE7FFFFFFFB1C21012321
:100F30001B04984201D3000C10391B0A984201D3BC
:100F4000000A08391B09984201D30009043902A29A
:100F5000105C40187047C046040302020101010101
:100F6000000000000000000010B5002903D1FFF7C9
:100F7000DDFF203002E00800FFF7D8FF10BDC046BB
:100F80000023C25C0133002AFBD1581E70470000C9
:100F900002B4714649084900095C49008E4402BC0C
:100FA0007047C04603B47146490840004900095ED5
:100FB00049008E4403BC704703460B437FD4002294
:100FC00043088B4274D303098B425FD3030A8B42DD
:100FD00044D3030B8B4228D3030C8B420DD3FF2247
:100FE000090212BA030C8B4202D31212090265D015
:100FF000030B8B4219D300E0090AC30B8B4201D3C8
:10100000CB03C01A5241830B8B4201D38B03C01A0E
:101010005241430B8B4201D34B03C01A5241030B85
:101020008B4201D30B03C01A5241C30A8B4201D336
:10103000CB02C01A5241830A8B4201D38B02C01AE1
:101040005241430A8B4201D34B02C01A5241030A58
:101050008B4201D30B02C01A5241CDD2C3098B423D
:1010600001D3CB01C01A524183098B4201D38B01BA
:10107000C01A524143098B4201D34B01C01A52415D
:1010800003098B4201D30B01C01A5241C3088B42A2
:1010900001D3CB00C01A524183088B4201D38B008D
:1010A000C01A524143088B4201D34B00C01A52412F
:1010B000411A00D201465241104670475DE0CA0F06
:1010C00000D04942031000D34042534000229C46C6
:1010D00003098B422DD3030A8B4212D3FC228901D0
:1010E00012BA030A8B420CD3890192118B4208D3A6
:1010F000890192118B4204D389013AD0921100E008
:101100008909C3098B4201D3CB01C01A524183091B
:101110008B4201D38B01C01A524143098B4201D348
:101120004B01C01A524103098B4201D30B01C01A73
:101130005241C3088B4201D3CB00C01A52418308ED
:101140008B4201D38B00C01A5241D9D243088B4243
:1011500001D34B00C01A5241411A00D201466346E6
:1011600052415B10104601D34042002B00D549424A
:10117000704763465B1000D3404201B50020FFF783
:101180004DF802BD0029F8D016E7704784461000DC
:1011900062468C461900634600E0C0461FB500F069
:1011A000C5FF002801D40021C8421FBD10B500F0C2
:1011B00009FF4042013010BD10B500F0B7FF002814
:1011C00001DB002010BD012010BDC04610B500F0AD
:1011D000ADFF002801DD002010BD012010BDC0467C
:1011E00010B500F033FF002801DC002010BD012005
:1011F00010BDC04610B500F029FF002801DA00201C
:1012000010BD012010BDC046F0B54F464646D6463B
:10121000C0B582B0009001910E034C00CD0F710A51
:10122000009E5F00760F0E43009900920193C90063
:10123000894619037B0D9846019B490ADB0F9C46A2
:10124000009B009A5B0F0B434146640DD200611A6C
:10125000654500D1A6E0002972DD4746002F00D188
:10126000DDE0CC4FBC4200D19AE10127382917DCE0
:1012700080273F043B431F2900DDDDE12027781A4A
:101280001F008740BA461700CF40844638005746B3
:10129000074360468240CB40501E8241F61A1743F6
:1012A0004B46DF1BB94580414042361A330200D419
:1012B000FFE07602760A002E00D13CE13000FFF715
:1012C00035FE0300083B20213800CA1AD0409E405A
:1012D00002009F4032439C4200DDA6E1181B013012
:1012E000091A3E008F40C6407B1E9F4113008B4071
:1012F00037431F43C2403B0016000024134300D174
:10130000DFE17B0700D132E30F233A003B40042B9F
:1013100004D03A1DBA42BF417F42F619330200D4CD
:1013200023E39C4B01349C4200D1B4E09A4B64050A
:101330001E40640D7707D20876021743360BACE0E7
:10134000002900D17EE04146091B002C00D060E15D
:1013500034004846044300D1C9E14C1E012900D1A4
:101360002EE28C4DA94200D124E20127382C11DC59
:1013700021001F2900DD0BE2202437004846641AB3
:10138000A740C84007434846A040CE40441EA04165
:101390009B1B0743D71BBA429241524265464446C3
:1013A0009E1A83E7002900DC9CE04746002F67D1A6
:1013B0001F00174300D1E4E0481E012900D19BE142
:1013C000744FB94200D1EBE001270100382811DC4D
:1013D0001F2900DDC7E12027781A1F0084468740B7
:1013E0001000C840074360468240CB40501E8241F7
:1013F000F61817434F444F45804140423618330298
:1014000057D5644B01349C4245D00121624B7A0888
:101410001E4039400A43F7071743760871E71F005B
:10142000174300D1ADE04F1EBC46012900D182E137
:10143000584FB94200D190E161460127382900DDBB
:101440002EE718E7554F611C394200D0D0E031003B
:1014500048461F0001431743002C00D03DE10029FE
:1014600000D1BCE1002F00D0BFE14B460021D808DD
:1014700077070743F00806034C05360B640D0CE0B4
:10148000444FBC4200D18BE001273829B2DC8027D1
:101490003F043B439CE70026002724053443ED0727
:1014A0002C433800210002B0E0BCBA46B146A84641
:1014B000F0BD7B0704D00F233B40042B00D028E76E
:1014C000F808344B77070743F0089C4200D04AE203
:1014D0003B00034359D080263603064336032D4C88
:1014E000360BDAE7002961D04146091B002C00D1F8
:1014F000B9E0284CA04500D1A5E10127382913DC2B
:101500008024240426431F2900DDC8E1202437005D
:101510004846641AA740C84007434846A040CE400A
:10152000441EA0419B190743BF1897429241524263
:101530004446D61863E73800FFF7F8FC0300183379
:101540001F2B00DCBFE63A00083882409C4200DDD9
:1015500083E01B1B581C1F2800DCB4E117001F3B55
:10156000DF40202805D040231B1A9A40531E9A4181
:1015700017430024002F0AD07B0700D0C4E62600C2
:101580009EE74B460C00D8089BE70027014C00263D
:1015900083E7C046FF070000FFFF7FFFFE07000054
:1015A0004B467707D8080743F00891E7CD4F611CF9
:1015B00039426BD1310048460143002C00D04BE149
:1015C0001F001743002900D181E1002F00D14CE713
:1015D0004A444A458041F61840423618330200D545
:1015E000B0E117009146374300D03EE7002654E7AC
:1015F0004946891A8846C145BF41F11A7F42C91B35
:101600000F0261D447460F4300D1BDE00E004746AC
:1016100051E6B54CA04500D100E10127382900DD95
:10162000B8E6802424042643A3E6B04EE41A16400C
:101630007B0700D03FE743E70F001800203FF8404A
:101640008446202903D04027791A8B401A43531E21
:101650009A41634617001F4322E6A448E11A10404E
:101660004707C00807E734004846044300D1FAE0C2
:101670004C1E012900D1D7E09B4FB94200D1E2E0D6
:101680000127382C00DD4FE721003CE7964CA142B2
:1016900000D1DDE04A444A458041F3184042181821
:1016A000C707520817434608520705D00F220C00FF
:1016B0003A40042A00D02CE67607FF083743000999
:1016C000D9E600270026E8E64946571ABA42924171
:1016D0009E1B52426546B61AEDE5002900D0C6E0D1
:1016E000002F67D1802600257F4C3603D5E665465E
:1016F0000C001E00D008E4E64A444A458041F31835
:10170000404218181100030200D496E0774B4908B4
:101710001840C3070B434408490700D129E10F22B1
:101720001A40042A00D1EAE01F1D9F42B6417642CA
:1017300036190224C4E649468F1AB9458041F61A83
:101740004042361A330206D47307FF0801211F43B3
:10175000F00890E665460124ABE54B467707D808CC
:101760000743F008B4E60F001800203FF840844615
:10177000202903D04027791A8B401A43531E9A41DF
:10178000634617001F4335E600250024002684E643
:101790000C003500203CE540202905D04024611A8A
:1017A0008E404946314389464846411E88410700DC
:1017B0002F43EFE5D2085F0765461743D80887E651
:1017C000171ABA4292419E1B5242B61A3302C1D432
:1017D0007307FF08654601211F43F0084BE6002F01
:1017E0007BD065461E0091463FE6811A8846C1457A
:1017F000A441F11A6442091B80242404214277D0B9
:10180000101A8242924107009E1B5242B61A374379
:1018100000D0A0E06546002400263EE65F07D2081F
:1018200065461743D80853E6811891429241F01853
:1018300052428018030200D568E74707C9080F43E2
:10184000C008012117E6D2085F071743D8083FE612
:101850000C000026002720E6002956D15F07D20899
:101860001743D80834E60C001E00D00829E6C1084A
:1018700070070143F008002F62D080242403204227
:1018800007D0DE08264204D165463000D1085B0748
:1018900019434F0FC900C9087F070F4318E60C0012
:1018A0003000203CE0408446202905D04024611AC5
:1018B0008E404946314389464846411E884161462B
:1018C00007000F4330E620210027091A0EE51E000D
:1018D000002F00D022E5002458E700250024002630
:1018E000DBE5C046FE070000FF070000FFFF7FFFAB
:1018F00047460F4300D147E70E00C146B5E5DF0874
:101900006407022127430009B5E51900C0087707DD
:1019100007431143F008002900D1D9E580210903CC
:10192000084207D0DC080C4204D1D2085B071A43F6
:10193000170020007B0FFF00FF085B071F43C7E570
:101940000F00C5E5124BD20833405F075B0201244C
:1019500017431E0BA1E5264212D00D4B654602002F
:1019600001241E40E6E4210085E51700A8E53A00C1
:10197000D4E4DB0864071C432700022100097AE550
:10198000C0087707074365460021F00873E5C046A5
:10199000FFFF7FFFF0B5DE46454657464E46E0B5B1
:1019A00087B0009201930B031B0B9B46CA0F4B00A1
:1019B000040080465B0D029200D198E07C4A93427D
:1019C00037D05946420FC9000A4380210904114308
:1019D000C2009046774A894692469A4400230024E2
:1019E0000393009E019F3B031B0B9B467B00300033
:1019F0005B0DFD0F002B59D06D4A934248D05946DC
:101A0000720FC9000A438021090411438B466949BA
:101A1000F2008C4651466344CB1A9A460021029E3E
:101A20006E40F6B20F2C00D9CEE0634BA4001B59D8
:101A30009F465A460243914600D090E09A460223C0
:101A4000904608240393CCE7CB464246029D039977
:101A5000022900D1DEE1032900D18DE0012900D067
:101A600079E12E0000220023002490461B05234329
:101A7000F60733434046190007B0F0BCBB46B246F8
:101A8000A946A046F0BD002200249046484BEDE751
:101A90005A46009B1A43494B9C46E244002A59D1BE
:101AA00002231C43002302219B46B8E75A46009BB1
:101AB0001A4349D05B46002B00D19CE15846FFF702
:101AC00035FA020003000B3A1D27009EBA1A1900CE
:101AD0005846D64008398840320002439346009A5F
:101AE0008A40374953448A4600219A4497E75B4627
:101AF0000343994621D05B46002B00D169E158464B
:101B0000FFF714FA0B235B429C46020084446646AE
:101B10001D239B1B260011005846DE4008398840D3
:101B200033000343994623008B409846254B0024FD
:101B30009B1A9A460023039353E7002398469A463C
:101B40000133042403934CE701231C4300230121A8
:101B50009B4664E70323320003211C435FE79A4658
:101B60000323D9460C2403933BE7002380249846A3
:101B700000260F4B240379E780245B4624031C4393
:101B800024032E0090460A4B240B6FE780244B461B
:101B90002403234202D05B462342F0D080244B46EC
:101BA00024031C432403029E014B240B5EE7C04622
:101BB000FF07000001FCFFFF5CBE000801F8FFFF0B
:101BC000F30300000DFCFFFFCB4500D2F8E000D18D
:101BD000F3E001235B429C46444648460025E2442C
:101BE0005B46170E1B021F43190C3B0412020097A1
:101BF0001F0C914602910397FEF70CFB02007A43FB
:101C00000B04210C804619438A4209D9009F012305
:101C1000BC465B4261449C46E0448F4200D85CE194
:101C2000881A0299FEF7F6FA039A2404424309043B
:101C3000240C03000C43A24206D90099013B8C46B8
:101C40006444A14200D842E1A01A424612041A4359
:101C500093464B4659461B0C1F0004930B04494600
:101C60000904090C0C001B0C5C43120C7B438846D6
:101C700051437A43270CBC465B186344994203D90D
:101C8000802149028C466244190C24041B04240C54
:101C90008A181C19904202D316D1A54214D25B4671
:101CA000009F013B4D4405934D459B41BC465B4223
:101CB0006344C018874200D302E1824200D929E17F
:101CC00000D124E1059B9B462C1BA542AD41009B06
:101CD000801A6D42401B834200D10FE10299FEF74A
:101CE00099FA039A0B044243210C050019438A42D6
:101CF00000D9CBE0881A0299FEF78CFA039A2404E3
:101D000042430904240C03000C43A24200D9CAE058
:101D10004146A41A2A041A43049F13041B0C594376
:101D200040467B439C46150C68430B0C844463443B
:101D30007D43984203D98020400284466544180CB4
:101D400009041B04090C40195B18844227D323D0D3
:101D5000012335001A43944B5344002B60DD510797
:101D600000D086E02E00D1085A46D20106D55A4648
:101D70008E4B1A4080239346DB0053448C4A934297
:101D800000DD80E65A4652070A4390465A465B05F4
:101D90005402240B5B0D69E63500002BDBD0009D5F
:101DA000511EAC466444AC4200D29EE0844200D254
:101DB000E1E000D1EEE00A00CAE7424500D908E7B9
:101DC0004B46DC07580843465B081C434346DD0787
:101DD00006E7FFF7ABF815239C46844402006346F0
:101DE00020321C2B00DC92E6230008388340994601
:101DF000002398469AE6FFF799F80200030015328F
:101E000020331C2A00DC5FE600990838814000225C
:101E10008B4666E600222E0000249046654B25E6A0
:101E20002E000121C91A382900DD1BE61F297EDC9E
:101E30006148140050445B4682408340CC40501EB1
:101E4000824123431A435B46CB40510709D00F21FF
:101E50001140042905D0111D9142924152429B1814
:101E60000A00190200D49BE00022012300249046BE
:101E7000FCE50F211140042900D173E7111D9142A7
:101E8000924152422E00C90893446DE7009B013DE8
:101E90009C4661448B4200D92CE78A4200D829E74E
:101EA000851E614426E70099013B8C466444A142AB
:101EB00000D92DE7A24200D82AE7831E644427E711
:101EC000874200D0FEE6A94500D9FBE6F5E6A2422E
:101ED00000D8B9E6831E6444B6E68A4200D89FE67D
:101EE000BC46831E984661449AE60A00844200D0AC
:101EF0002EE74B4500D02BE735002CE72A4B2F4A25
:101F00005344924543DB0122002193442CE7AC4229
:101F100000D8D7E602235B429C4600994D444D45CC
:101F20009B41E3448C465B426344C018CCE61F20CF
:101F30004042C31A5846D840202904D05946204B65
:101F4000534499400A43531E9A4107231900024300
:101F500000241140134209D008331340042B1DD034
:101F6000131D934289411A0049424907D2080A4386
:101F7000904600237AE54946009F4D004D45894132
:101F8000BC4649426144A946023A6418AEE70122C0
:101F9000524246E79945EED30A00AAE70021E5E759
:101FA00059075B021C0BE1E7FF030000FFFFFFFE88
:101FB000FE070000FF0700001E04000002FCFFFFF8
:101FC0003E040000F0B55746DE464E464546E0B5B5
:101FD0000D000400E80F83460903D80F090B824661
:101FE00019488C461F0369005E00490D3F0B760DB2
:101FF000814218D086420FD00120B1420DD1BC459C
:102000000BD1944209D1D3451CD0002905D160469B
:102010002043431E984100E00120F0BCBB46B2467D
:10202000A946A046F0BD01208E42F6D16146394353
:102030000F0017432743F0D15B465246981A431EC0
:102040009841EAE70020E8E7FF070000F0B55746AF
:102050004E464546DE46E0B50D000E034900490DEB
:102060008A46DF0FE90FBC4683B02F4F040080463D
:102070000191580019039146360B090B400DBA45E2
:102080001DD0B8420DD05746002F2AD13443002826
:1020900024D10A4336D0002C41D163465800013880
:1020A00015E0114338D15346002B01D12643F4D01B
:1020B000019B634507D1019B5800013807E0264387
:1020C0002AD1504521D00120019B5F42384303B003
:1020D000F0BCBB46B246A946A046F0BD002CDCD001
:1020E000E6E70028EFD0019B6345ECD18245EADCAE
:1020F000E1DB8E42E7D8DED1C845E4D80020C845F0
:10210000E5D2D8E7002CE2D0DDE7114304D1019BF2
:102110006345D8D10020DAE702204042D7E7019B8F
:102120006345E6D0CFE7C046FF070000F0B557464D
:102130004E464546DE46E0B50D000E034900490D0A
:102140008A46DF0FE90FBC4683B02E4F040080465D
:102150000191580019039146360B090B400DBA4501
:102160001ED0B8420DD05746002F27D13443002847
:1021700033D10A4334D0002C40D163465800013893
:1021800015E0114312D15346002B01D12643F4D060
:10219000019B63451DD00120019B5F42384306E04F
:1021A000264303D15045F6D111431CD0022003B081
:1021B000F0BCBB46B246A946A046F0BD0028EAD016
:1021C000019B6345E7D18245E5DC02DB8E42E2D824
:1021D0000ED0019B58000138E9E7002CCDD0D7E79D
:1021E000002CE4D0D7E7019B00206345DFD0D2E785
:1021F000C845D0D80020C845D9D2EAE7019B63453D
:10220000E4D0C8E7FF070000F0B557464E46DE466B
:102210004546E0B51F000B031B0B16009A46CA0F7C
:102220004B000400914685B05B0D00D1CFE1CD4A53
:10223000934255D05146420FC9000A4380210904F8
:102240001143C2009046C84A8A4693469B440023E5
:10225000002502933C037B00FA0F0196240B5B0DD3
:10226000009200D188E1BF4A934200D192E0BE4A79
:10227000944663449B440A2D42DCE400730F2343DD
:102280008024494624041C43F3000193009B002052
:102290005940CBB20393022D00DC94E00123AB4004
:1022A0001D00A6232A00DB001A401D4200D029E2AF
:1022B00090239B001D4200D14DE2002380249946CB
:1022C0002403A84B10004A461B052343D20713439F
:1022D000190005B0F0BCBB46B246A946A046F0BD09
:1022E00052460243904600D0ACE19B460223924600
:1022F00008250293AEE7009BA2469946019B9846AB
:10230000029B022B00D1CAE1032B00D192E1012BE9
:1023100010D1002300240022D4E701227B083A4098
:1023200013435246D2071343984653465B089A46D6
:10233000039B99465B46581C8023DB005B44002BC3
:1023400000DCB1E1424652070BD00F2241460A4061
:10235000042A06D04246111D414592418846524208
:1023600092445246D20106D55246804B1A408023F1
:102370009246DB00C3187E4A934200DD8FE142465D
:10238000D108524652070A4351465B054C02240BC2
:102390005B0D97E7734B26439C46E344002E00D128
:1023A0006FE1032349461D43009B5940CBB2039381
:1023B0000A2D00DD33E10123AB401D00032302930E
:1023C00088222A4297D1424643461204120C160034
:1023D00001981D0C030C0004000C4643B4461E007B
:1023E0006E430096160007005E436146B0466F4399
:1023F0000E0CB8444644B74205D9802149028846AC
:10240000009F4744009761460904090C370C3604C5
:102410008C463100614401911100260C2404240CE7
:1024200061438C462100694389466146090C884610
:1024300072434A4442447543914503D9802149027D
:1024400088464544110C884661460904090C8C46AF
:1024500012046244B91802915146090C8C46514647
:102460000F043F0C390041434544884661464143CF
:102470008A4641466046090C894658437B4353448B
:102480004B449A4503D98021490289464844190C96
:10249000894641460904090C8846390061431B04FA
:1024A0004344884661464C4371438C4641467743DA
:1024B0000E0C3F19F6194844B44203D98021490251
:1024C0008946CC440299009F894631044F4489468D
:1024D0004146974292410C04240C4C44FF1852424E
:1024E0006419A1189F429B41884682465B429946E7
:1024F00090459241AC42A441C244D144524264420C
:10250000144399459B41824592415B425242134399
:102510004A46360CA419E31863445B02D20D1A43F1
:10252000019992467A020A43501E8241FF0D1743D9
:102530004A4652021743B846DB0100D5EDE60D4B83
:10254000039A5B449146002B00DCACE03A00520752
:1025500000D110E70F2258463A40042A00D0F9E68D
:1025600009E7C046FF07000001FCFFFFFFFFFFFE79
:10257000FE070000FF030000220032436FD0002C52
:1025800000D1C2E02000FEF7D1FC020003000B3AAC
:102590001D20821A30001900D04008398C400200FA
:1025A000224334008C405946CB1A86498B469B44C3
:1025B0000A2D00DDA4E64946009B01945940CBB2A8
:1025C000140000200393022D00DD67E6FBE653466E
:1025D000034398463CD05346002B00D1A3E050461D
:1025E000FEF7A4FC0B235B429C46020084441100CE
:1025F0005046083988401D23804660461B1A20003B
:10260000D8400300404603439A4623008B40984637
:102610006C4B00259B1A9B46002302931AE60F2D54
:1026200000D0C9E0802352461B031A4202D01C424C
:1026300000D192E08024534624031C4324034246E5
:10264000240B3EE69B46032380460C25029301E6BD
:1026500000239A469B46013304250293FAE50121A3
:102660000D430A2D00DD4BE6494600984140C9B2B2
:102670000391022D00DC96E0002300240120019349
:102680000CE649460223009A2B435140CAB20392FA
:102690000A2B00DD34E6002D57D1039B9946002418
:1026A0000022494B0EE658460121C91A382900DD9F
:1026B0002FE61F2956DD1F2254465242D31ADC4012
:1026C000202907D0414B42469C46534660448340F4
:1026D0001A43904642460721531E9A410B0022435B
:1026E00013400024114209D00F231340042B5DD066
:1026F000111D91429B410A005B425B07D2081A43BD
:102700000023DFE5039B9946FAE50198FEF70EFCEE
:1027100002000300153220331C2A00DC38E7019A3E
:10272000083882403FE7FEF701FC15239C468444AD
:102730000200634620321C2B00DC58E70023984639
:102740002300083883409A4662E71D0000230024D6
:1027500002200193A2E5029032E61C43009B019AFD
:102760009946AEE51A4B5246C31840469A40C840B7
:102770000243404698400300581E834154461A4382
:10278000CC40530709D00F231340042B05D0131D51
:10279000934292415242A4181A00230208D5012301
:1027A000002400228EE5894600248BE50023A5E75E
:1027B00063076402240BA1E7009BA2469946019B94
:1027C000984637E70DFCFFFFFF0700003E040000BE
:1027D0001E040000F0B557464E464546DE46E0B5BD
:1027E00083B0009001910C034D00CE0F610A009C54
:1027F0005F00640F0C43009900920193C800190315
:102800007B0D9946019BCC4FDB0F9C464B0A0099F0
:102810008046490F1943009B8B46DA0092466D0DA6
:10282000B94500D1BFE00123614659404B468C4673
:10283000EB1A8E4275D0002B00DCA3E2494600293A
:1028400000D1CEE0BD4200D100E20127382B19DCD7
:10285000802759463F0439438B461F2B00DDFAE1A0
:102860002027F91A8C4659466746B9400F001100D7
:10287000D9400F4361468A40511E8A415946D9408A
:102880001743641AC71BB84280414042241A2302EE
:1028900000D440E16402640A002C00D154E120001D
:1028A000FEF744FB0300083B20213800CA1AD04041
:1028B0009C4002009F4022439D4200DDA6E1581B40
:1028C0000130091A3C008F40C4407B1E9F41130019
:1028D0008B4027431F43C2403B0014000025134395
:1028E00000D1F7E17B0700D177E30F2338003B40AD
:1028F000042B04D0381DB842BF417F42E4192302A3
:1029000000D468E38C4B01359D4200D1F4E08B4B41
:102910006D051C406D0D6707C00864020743240B5A
:10292000ECE0002B00DC29E34946002900D0D6E08A
:102930005946114300D12EE1591E012B00D1E6E189
:10294000BB4200D182E101270B00382914DC1F2B88
:1029500000DD3CE22027F91A8C4659466746B9400B
:102960000F001100D9400F4361468A40511E8A4131
:102970005946D940174364183F1887428041404266
:102980002418230200D4C6E06B4B01359D4200D1D0
:10299000B2E00121694B7A081C4039400A43E7073D
:1029A000174364089EE7664B11438A46EB180029DB
:1029B00028D066452CD0002B5BD0002D00D12CE117
:1029C0005B4666465F07D2081743DD083B002B4392
:1029D00000D1E2E0802424032C432403564D240B31
:1029E0008CE05946114300D1D5E0591E012B00D18E
:1029F000B9E1BB4200D1B1E101270B00382900DD6C
:102A000040E72AE76146012779408C466645D2D1E6
:102A1000002B00D1C5E0002D00D055E14B4625002C
:102A2000054300D112E2591E8C46012B00D149E228
:102A3000414DAB4200D18FE20127382911DC6346BA
:102A40001F2B00DD5BE26146202327005B1A050097
:102A500098409F40CD40431E9841CC402F430743B0
:102A6000A344BF189742924152425A4414004D4623
:102A700087E7344F6B1C3B4200D0B6E05946230039
:102A800011430F000343002D00D026E1002B00D19D
:102A9000C0E1002900D1A1E0831A98465B46404579
:102AA000AD41E31A6D425B1B80252D042B4200D102
:102AB0004BE15B46101A824292411C1B0700012623
:102AC00063465242A41A27431E40002F00D142E120
:102AD0002C4200D16DE2194B01251C401BE7BD4281
:102AE00000D13BE10127382B00DD45E7802759461F
:102AF0003F0439438B462AE7002400272D05254350
:102B0000F60735433800290003B0F0BCBB46B24697
:102B1000A946A046F0BD7B0704D00F233B40042B01
:102B200000D0E7E62B00F808034A67070743E508EB
:102B3000934200D14AE7A5E0FF070000FFFF7FFFB7
:102B400001F8FFFFFE0700003800FEF7EFF9030071
:102B500018331F2B00DCA7E63A00083882409D425C
:102B600000DD8AE05B1B581C1F2800DCD8E1170041
:102B70001F3BDF40202805D040231B1A9A40531EDC
:102B80009A4117430025002F00D1E5E07B0700D0D4
:102B9000ABE62C00C6E7C008C6E700270024D14DED
:102BA000ACE7D14F6B1C3B4271D123000343002D96
:102BB00000D04EE15746002B00D1B5E1002F0DD0DB
:102BC0008318834280415C4440422418220200D58D
:102BD000C8E11F009846274300D1BCE04346670781
:102BE000DB081F43E50800234CE0831A98465B4648
:102BF0004045BF41E31A7F42DB1B1F027CD447469E
:102C00001F4300D1A6E01C00474645E6B74CED1A2D
:102C100014407B0700D080E784E74B46250005433E
:102C200066D05F1E012B00D1FCE0AE4DAB4200D15F
:102C30005EE16646382F00DCB4E00120171ABA4284
:102C400092415B4652424D469C1A20E66707C008F7
:102C50000743E508BAE61F005946203FF9400F0038
:102C6000202B05D04021CB1A594699400A43924661
:102C700053465A1E93411F4304E6EB1A9B4D1540E1
:102C80006F07ED082C035D05240B6D0D36E7954DA0
:102C9000AB4200D1D6E082182100824280415944E3
:102CA00040420818C707520817434408520700D487
:102CB00085E10F221D003A40042A00D01AE6FF08E1
:102CC000640727430509DDE75B46D2085F07174322
:102CD000DD087BE60027002410E7002B00D0D6E0BB
:102CE000002900D02FE1802400267E4D240305E733
:102CF00066465C46D00817E75B46171ABA4292410F
:102D00001C1B012663465242A41A1E40C4E58318C8
:102D1000834280415C44404225182A0200D4DAE014
:102D2000724A5B081540EA071A4369085B0700D43A
:102D30004AE10F231340042B00D1FCE0171D9742FA
:102D4000A441644202256418ECE647461C001F4378
:102D500000D043E7002600250024CFE6C00867071F
:102D60000743E50832E6871A5B46B8428041E41A19
:102D70004042241A230228D46307FF081F43E508B2
:102D800001237FE7002B00D173E64B465F1B3B001E
:102D9000002D00D142E7382F00DDECE080230E004B
:102DA0001B041C431F2F25DC20252300ED1B0100E5
:102DB000A840AB40F940451EA8410B43FC401843D6
:102DC0005B461B1B9B4639E76646012562E51F00F3
:102DD0005946203FF9408C46202B05D040275946C4
:102DE000FB1A99400A43924657467B1E9F41634611
:102DF0001F43C1E53B002500203BDD40202F04D0D0
:102E00004023DB1B9C40204380464046431E9841A4
:102E1000284313E700299DD0012663465C4690466F
:102E20001E40DBE6171A5B46BA4292411C1B524217
:102E3000A41A2302C8D46307FF081F436646012370
:102E4000E5081FE71D000024002757E65C46D00870
:102E50006AE6002B00D137E75346C00867070743EF
:102E6000E508002B00D1B1E580231B031D4208D0EB
:102E70005946C808184204D1D20849070A43170026
:102E800005007B0FFF00FF085B071F439EE5C0089E
:102E900063071843E508002953D080231B031D4214
:102EA0000AD05946CC081C4206D1012663462500AB
:102EB000D008490708431E40470FC000C0087F07DD
:102EC000074383E58318934292415C445242A5181C
:102ED0002A0200D524E76F07DB081F43ED08012312
:102EE000D0E6C046FF070000FE070000FFFF7FFF9F
:102EF0005B46D2085F0766461743DD0866E5250096
:102F0000203BDD406346202B05D0402361465B1A01
:102F10009C402043804647467B1E9F412F43A0E5AF
:102F200020210027091AD2E4002F00D113E75C46C4
:102F300017000025F6E5D708490702230F432D099E
:102F4000A0E6070042E55B4601265F07DD08634611
:102F5000D20817431E4039E55B46D2085F07174386
:102F6000DD0833E51E4ADB082240570752020125DF
:102F70001F43140BC2E50E0001205FE6002B0DD0AD
:102F80004B465B1B9C46002D00D148E50127382BA2
:102F900000DD66E580231B041C4350E56B1C114DCE
:102FA0002B4200D073E65946230011438A4603435F
:102FB00000E66707C00800230743E50862E66407E8
:102FC000FF08274305095DE6D208490711430F00B2
:102FD00002232D0956E60700A4E538008FE4C04619
:102FE000FFFF7FFFFE070000F0B5C6461E03360B4D
:102FF000B0460D4E0C034D005F0000B5240B6D0D67
:103000007F0DB5420BD0084900208F4204D14646BF
:1030100016433000431E984180BCB846F0BD0443BF
:103020000120002CF8D1EEE7FF0700000B000200A2
:1030300070B5164D0C0382B0490000200092019338
:10304000240B490DDE0FA94204DD1148814203DD46
:10305000104BF01802B070BD8020400320430E4C8E
:10306000641A1F2C08DD0D4B5B1AD8400300584230
:10307000002EEFD11800EDE7094B009A9C460300A3
:1030800061448B40E2401343F1E7C046FE03000079
:103090001D040000FFFFFF7F330400001304000045
:1030A000EDFBFFFF70B5002816D0C317C5185D40B3
:1030B000C40F2800FDF73AFF104B1B1A5B055B0D90
:1030C0000A2814DC02002E00153296400B22121A38
:1030D000D5402D032D0B03E00024002300250026FE
:1030E0001B052B43E40723433000190070BD0B3848
:1030F00085402D0300262D0BF2E7C0461E0400007C
:1031000010B5041E10D0FDF711FF0E4B1B1A5B0506
:103110005B0D0A280FDC0B222100121AD14015305A
:103120000A038440120B01E0002300221B05134315
:103130002000190010BD22000B3882401203002429
:10314000120BF3E71E04000080B500AFC046BD4679
:1031500080BD000080B582B000AF78607B68002B36
:1031600001D1012359E17B685B6D002B0AD17B689B
:1031700000229A657B685022002199547B681800D0
:1031800005F0CAFB7B685B6D10221340102B05D045
:103190007B681B689B68042213400BD07B685B6DC7
:1031A00010221A437B685A657B685022002199548B
:1031B000012332E17B685B6D9A4A134002221A4375
:1031C0007B685A657B681B689B6803221340012B50
:1031D00008D17B681B681B6801221340012B01D1B9
:1031E000012300E00023002B49D17B685A68C023EB
:1031F0001B069A420BD07B685A688023DB059A42F3
:1032000005D07B685A6880231B069A4211D17B68DF
:103210001B681A697B681B68920092081A617B68B8
:103220001B6819697B685A687B681B680A431A61C6
:1032300014E07B681B681A697B681B68920092081F
:103240001A61794B1A68784B78490A401A60764BB4
:1032500019687B685A68744B0A431A607B681B685C
:10326000DA687B681B6818218A43DA607B681B6810
:10327000D9687B689A687B681B680A43DA606A4B86
:103280001A68694B6A490A401A60674B19687B687B
:103290005B6B5A06644B0A431A607B681B689A682A
:1032A00080235B05134008D17B681B689A687B68A4
:1032B0001B68802149050A439A607B681B68DA68AD
:1032C0007B681B685B490A40DA607B681B68D968C9
:1032D0007B68DA687B681B69022B01D1042300E05C
:1032E00000231A437B6820201B5C5B031A437B6826
:1032F0002C201B5C5B001A437B681B6B1A437B68AA
:103300009B699B031A437B68DB69DB031A437B6879
:103310001B680A43DA607B685A6AC223FF339A4209
:103320000BD07B681B68D9687B685A6A7B689B6A8C
:103330001A437B681B680A43DA607B6821229B5C26
:10334000012B1AD17B6820229B5C002B09D17B6862
:103350001B68DA687B681B68802149020A43DA60CF
:103360000BE07B685B6D20221A437B685A657B68A3
:103370009B6D01221A437B689A657B68DB6B012B8E
:103380001FD17B681B681A697B681B682A490A4041
:103390001A617B681B6819697B681A6C7B685B6CB7
:1033A0001A437B689B6C1A437B681B680A431A614B
:1033B0007B681B681A697B681B6801210A431A61D4
:1033C0000EE07B681B681B6901221340012B07D1AB
:1033D0007B681B681A697B681B6801218A431A6134
:1033E0007B681B685A697B681B6807218A435A619E
:1033F0007B681B6859697B689A6B7B681B680A430A
:103400005A617B6800229A657B685B6D0322934357
:1034100001221A437B685A6500231800BD4602B09A
:1034200080BDC046FDFEFFFF08270140FFFFC3FF30
:10343000FFFFFFFD1902FEFF03FCFFFF90B585B003
:1034400000AF78600F23FB1800221A707B681B689E
:103450009B680422134038D17B6850229B5C012B6F
:1034600001D1022338E07B685022012199547B6806
:10347000DB69012B07D00F23FC187B68180000F0D4
:1034800061FA030023700F23FB181B78002B20D157
:103490007B685B6D124A1340802252001A437B689E
:1034A0005A657B6800229A657B68502200219954F6
:1034B0007B681B681C221A607B681B689A687B68A3
:1034C0001B6804210A439A6003E00F23FB180222C1
:1034D0001A700F23FB181B781800BD4605B090BD6D
:1034E000FEF0FFFFB0B584B000AF78600F23FB188B
:1034F00000221A707B6850229B5C012B01D10223B1
:1035000029E07B685022012199540F257C197B68A2
:10351000180000F0E6FA030023707B191B78002BDB
:1035200012D17C197B68180000F074FA0300237034
:103530007B191B78002B07D17B685B6D084A134011
:1035400001221A437B685A657B68502200219954F6
:103550000F23FB181B781800BD4604B0B0BDC04651
:10356000FEFEFFFF80B584B000AF786039600023B5
:10357000BB600023FB607B685B69082B02D10823DA
:10358000FB6014E07B681B68DB6801221340012BA1
:103590000BD17B685B6D20221A437B685A657B6880
:1035A000502200219954012372E00C23FB6000F0AB
:1035B0006BFB0300BB601FE03B6801331CD03B6822
:1035C000002B07D000F060FB0200BB68D31A3A68FA
:1035D0009A4211D27B681B681B68FA6813400BD1B2
:1035E0007B685B6D04221A437B685A657B685022B6
:1035F0000021995403234BE07B681B681B68FA6821
:103600001340D9D07B685B6D802292001A437B689F
:103610005A657B681B68DA68C0231B0113402ED1F2
:103620007B6820229B5C002B29D17B681B681B6870
:1036300008221340082B22D17B681B689B68042258
:10364000134010D17B681B685A687B681B680C218B
:103650008A435A607B685B6D0F4A134001221A430C
:103660007B685A650BE07B685B6D20221A437B68A0
:103670005A657B689B6D01221A437B689A657B685B
:103680009B69002B03D17B681B680C221A60002306
:103690001800BD4604B080BDFEFEFFFF80B582B0BD
:1036A00000AF78607B681B681B6C1800BD4602B0D9
:1036B00080BD000080B584B000AF78607B681B6877
:1036C0001B68FB607B681B685B68BB60FB6804224F
:1036D000134003D0BB680422134007D1FB680822C3
:1036E00013404ED0BB68082213404AD07B685B6D04
:1036F0001022134006D17B685B6D802292001A4332
:103700007B685A657B681B68DA68C0231B0113401D
:103710002BD17B6820229B5C002B26D1FB680822E2
:10372000134022D07B681B689B680422134010D191
:103730007B681B685A687B681B680C218A435A6047
:103740007B685B6D2F4A134001221A437B685A65E0
:103750000BE07B685B6D20221A437B685A657B68AF
:103760009B6D01221A437B689A657B68180000F004
:103770004BF87B689B69012B03D07B681B680C228C
:103780001A60FB688022134012D0BB68802213406D
:103790000ED07B685B6D802252021A437B685A65AB
:1037A0007B68180000F038F87B681B6880221A607C
:1037B000FB681022134020D0BB68102213401CD09D
:1037C0007B681B6B002B06D07B681B68DB680122C3
:1037D0001340012B0DD17B689B6D02221A437B683D
:1037E0009A657B681B6810221A607B68180000F0DD
:1037F0001BF87B681B6810221A60C046BD4604B0E7
:1038000080BDC046FEFEFFFF80B582B000AF78608D
:10381000C046BD4602B080BD80B582B000AF7860C2
:10382000C046BD4602B080BD80B582B000AF7860B2
:10383000C046BD4602B080BD80B582B000AF7860A2
:1038400039607B6850229B5C012B01D102236CE024
:103850007B685022012199547B681B689B68042275
:1038600013400BD07B685B6D20221A437B685A653E
:103870007B68502200219954012356E03B685B6825
:103880002C4A934228D07B681B68996A3B681B6866
:103890005B035A0B7B681B680A439A623B681A6891
:1038A0008023DB02134009D0234B1A68224B80216E
:1038B00009040A431A600A2000F060F93B681A689C
:1038C00080239B0213402BD01B4B1A681A4B80217C
:1038D000C9030A431A6023E07B681B689A6A3B6845
:1038E0001B685B035B0BD9437B681B680A409A62C9
:1038F0003B681A688023DB02134005D00E4B1A6820
:103900000D4B0E490A401A603B681A6880239B02DF
:10391000134005D0084B1A68074B09490A401A6042
:103920007B6850220021995400231800BD4602B044
:1039300080BDC0460110000008270140FFFF7FFF47
:10394000FFFFBFFF80B584B000AF78600023FB604D
:103950007B681B689B6803221340012B08D17B689E
:103960001B681B6801221340012B01D1012300E0D9
:103970000023002B46D17B681B689B68244A1340B8
:103980000DD07B685B6D10221A437B685A657B689B
:103990009B6D01221A437B689A65012333E07B68A3
:1039A0001B689A687B681B6801210A439A600120A2
:1039B00000F0E4F800F068F90300FB601BE000F0A1
:1039C00063F90200FB68D31A0A2B14D97B681B68C1
:1039D0001B6801221340012B0DD07B685B6D102208
:1039E0001A437B685A657B689B6D01221A437B688A
:1039F0009A65012307E07B681B681B68012213405E
:103A0000012BDCD100231800BD4604B080BDC046A8
:103A10001700008080B584B000AF78600023FB60A1
:103A20007B681B689B6803221340012B08D17B68CD
:103A30001B681B6801221340012B01D1012300E008
:103A40000023002B48D07B681B689B68052213402D
:103A5000012B10D17B681B689A687B681B68022168
:103A60000A439A607B681B6803221A6000F00CF915
:103A70000300FB6029E07B685B6D10221A437B68C2
:103A80005A657B689B6D01221A437B689A65012306
:103A900023E000F0F9F80200FB68D31A0A2B14D9CE
:103AA0007B681B689B6801221340012B0DD17B684A
:103AB0005B6D10221A437B685A657B689B6D0122FF
:103AC0001A437B689A65012307E07B681B689B6843
:103AD00001221340012BDCD000231800BD4604B0A6
:103AE00080BD80B584B000AF78600023FB607B6848
:103AF0001B689B68042213403AD07B681B689B6854
:103B000004221340042B0DD17B681B689B680222A2
:103B1000134007D17B681B689A687B681B6810217B
:103B20000A439A6000F0B0F80300FB601AE000F06E
:103B3000ABF80200FB68D31A0A2B13D97B681B6809
:103B40009B68042213400DD07B685B6D10221A43E2
:103B50007B685A657B689B6D01221A437B689A6576
:103B6000012306E07B681B689B6804221340DED1BA
:103B700000231800BD4604B080BD000080B584B0AD
:103B800000AF78600B4B1B680B491800FCF7BCFAC0
:103B900003001A007B685343FB6002E0FB68013BB3
:103BA000FB60FB68002BF9D1C046C046BD4604B09F
:103BB00080BDC0460000002040420F0080B582B0AA
:103BC00000AFFB1D00221A700B4B1A680A4B4021F4
:103BD0000A431A60032000F011F8031E03D0FB1DF6
:103BE00001221A7001E005F0D1FAFB1D1B781800C4
:103BF000BD4602B080BDC0460020024090B583B0F3
:103C000000AF7860144B1C68144B1B781900FA2322
:103C10009800FCF779FA030019002000FCF774FA09
:103C20000300180001F035FC031E01D001230FE052
:103C30007B68032B0BD8796801235B4200221800B4
:103C400001F002FC064B7A681A60002300E00123B1
:103C50001800BD4603B090BD000000200800002001
:103C60000400002080B500AF054B1B781A00054BFF
:103C70001B68D218034B1A60C046BD4680BDC046C3
:103C800008000020F001002080B500AF024B1B6847
:103C90001800BD4680BDC046F001002080B584B04C
:103CA00000AF7860FFF7F0FF0300BB607B68FB604C
:103CB000FB68013305D00A4B1B781A00FB689B1880
:103CC000FB60C046FFF7E0FF0200BB68D31AFA684A
:103CD0009A42F7D8C046C046BD4604B080BDC04633
:103CE0000800002080B584B000AF78607B68002BAE
:103CF00001D101233DE07B681B68204A1A607B6884
:103D00001B681F4A1A607B681B687A6852685A6091
:103D10007B681B687A6892689A60FFF7B5FF0300BA
:103D2000FB600EE0FFF7B0FF0200FB68D31A2A2BFE
:103D300007D97B681B68DB680722134001D0032387
:103D400017E07B681B68DB6807221340EAD17B68B9
:103D50001B681A697B68DB689A4205D07B681B6820
:103D60007A68D2681A6103E07B681B68054A1A60AA
:103D700000231800BD4604B080BDC046CCCC000076
:103D800055550000AAAA000080B582B000AF786047
:103D90007B681B68034A1A6000231800BD4602B006
:103DA00080BDC046AAAA0000B0B58AB000AF786056
:103DB0007B68002B02D1012300F05AFBCE4BDB685D
:103DC0000C2213403B62CC4BDA6880235B02134029
:103DD000FB617B681B680122134000D17CE03B6AD9
:103DE000082B07D03B6A0C2B11D1FA6980235B02A8
:103DF0009A420CD1C04B1A6880239B02134000D119
:103E000069E07B685B68002B65D1012330E37B6848
:103E10005A6880235B029A4207D1B74B1A68B64BA7
:103E2000802149020A431A6027E07B685A68A02370
:103E3000DB029A420ED1B04B1A68AF4B8021C90207
:103E40000A431A60AC4B1A68AB4B802149020A4303
:103E50001A6012E0A84B1A68A74BA8490A401A60DA
:103E6000A54B1A6880235B021340FB60FB68A24BE2
:103E70001A68A14BA2490A401A607B685B68002B54
:103E800014D0FFF701FF0300BB6108E0FFF7FCFE61
:103E90000200BB69D31A642B01D90323E8E2964BD5
:103EA0001A6880239B021340F0D015E0FFF7ECFE68
:103EB0000300BB6108E0FFF7E7FE0200BB69D31A0D
:103EC000642B01D90323D3E28B4B1A6880239B0216
:103ED0001340F0D100E0C0467B681B68022213400B
:103EE00000D18BE07B68DB687B613B6A042B05D0EB
:103EF0003B6A0C2B3ED1FB69002B3BD17E4B1B68F0
:103F00000422134004D07B69002B01D10123AFE2CE
:103F1000794B5B687B4A134019007B681B691A0266
:103F2000754B0A435A60744B1B680922934319006E
:103F3000714B7A690A431A6000F0E8FB01006E4B8E
:103F4000DB681B090F2213406F4AD35C0A00DA407A
:103F50006E4B1A606E4B1B6813257C191800FFF717
:103F60004DFE030023707B191B78002B46D07B1974
:103F70001B787DE27B69002B27D05F4B1B680922F1
:103F8000934319005C4B7A690A431A60FFF77CFE81
:103F90000300BB6108E0FFF777FE0200BB69D31A9C
:103FA000022B01D9032363E2534B1B680422134005
:103FB000F1D0514B5B68534A134019007B681B6971
:103FC0001A024D4B0A435A6018E04B4B1A684A4B91
:103FD00001218A431A60FFF757FE0300BB6108E026
:103FE000FFF752FE0200BB69D31A022B01D903234B
:103FF0003EE2414B1B6804221340F1D17B681B68F1
:104000001022134000D1A1E03B6A002B40D13A4B73
:104010001A6880239B00134005D07B689B69002BA6
:1040200001D1012324E2344B5B683A4A1340190062
:104030007B681A6A304B0A435A602F4B5B681B023D
:10404000190A7B68DB691A062B4B0A435A607B68A6
:104050001B6A5B0B0133802212029A40264BDB68FD
:104060001B090F210B402849CB5CDA40274B1A6013
:10407000274B1B6813257C191800FFF7BFFD0300B1
:1040800023707B191B78002B60D07B191B78EFE124
:104090007B689B69002B3FD0174B1A68164B802119
:1040A00049000A431A60FFF7EFFD0300BB6108E017
:1040B000FFF7EAFD0200BB69D31A022B01D90323E3
:1040C000D6E10D4B1A6880239B001340F0D00A4BB9
:1040D0005B68104A134019007B681A6A064B0A4352
:1040E0005A60054B5B681B02190A7B68DB691A067C
:1040F000014B0A435A6029E000100240FFFFFEFF17
:10410000FFFFFBFFFFE0FFFF9CBE00080000002058
:1041100004000020FF1FFFFFBE4B1A68BD4BBE49C5
:104120000A401A60FFF7B0FD0300BB6108E0FFF72B
:10413000ABFD0200BB69D31A022B01D9032397E11F
:10414000B44B1A6880239B001340F0D17B681B6836
:104150000822134036D07B685B69002B19D0AD4B29
:104160001A6DAC4B01210A431A65FFF78DFD030060
:10417000BB6108E0FFF788FD0200BB69D31A022B80
:1041800001D9032374E1A34B1B6D02221340F1D02C
:1041900018E0A04B1A6D9F4B01218A431A65FFF767
:1041A00073FD0300BB6108E0FFF76EFD0200BB6911
:1041B000D31A022B01D903235AE1964B1B6D02221D
:1041C0001340F1D17B681B680422134000D1AEE09C
:1041D00027203B1800221A708E4B9A6B80235B05B8
:1041E000134009D18B4B9A6B8A4B802149050A43B6
:1041F0009A633B1801221A70884B1A6880235B006F
:1042000013401AD1854B1A68844B802149000A4318
:104210001A60FFF739FD0300BB6108E0FFF734FDCA
:104220000200BB69D31A642B01D9032320E17B4B25
:104230001A6880235B001340F0D07B689A68802363
:104240005B009A4207D1734B1A6D724B8021490073
:104250000A431A6531E07B689B68002B0CD16D4BDB
:104260001A6D6C4B6C490A401A656A4B1A6D694BA2
:104270006B490A401A6520E07B689A68A023DB003E
:104280009A420ED1634B1A6D624B8021C9000A43DA
:104290001A65604B1A6D5F4B802149000A431A650D
:1042A0000BE05C4B1A6D5B4B5B490A401A65594B3E
:1042B0001A6D584B5A490A401A657B689B68002B57
:1042C00015D0FFF7E1FC0300BB6109E0FFF7DCFC60
:1042D0000200BB69D31A534A934201D90323C7E0B2
:1042E0004C4B1A6D80239B001340EFD014E0FFF776
:1042F000CBFC0300BB6109E0FFF7C6FC0200BB6911
:10430000D31A484A934201D90323B1E0414B1A6DB5
:1043100080239B001340EFD12723FB181B78012B30
:1043200005D13C4B9A6B3B4B3F490A409A637B68F3
:104330005B6A002B00D19AE03B6A0C2B64D07B684F
:104340005B6A022B45D1334B1A68324B37490A401E
:104350001A60FFF799FC0300BB6108E0FFF794FCCB
:104360000200BB69D31A022B01D9032380E0294B39
:104370001A6880239B041340F0D1264BDB682C4A3B
:10438000134019007B689A6A7B68DB6A1A437B6872
:104390001B6B1A431F4B0A43DA601E4B1A681D4BF6
:1043A000802149040A431A60FFF76EFC0300BB61D9
:1043B00008E0FFF769FC0200BB69D31A022B01D9A0
:1043C000032355E0134B1A6880239B041340F0D05D
:1043D0004DE0104B1A680F4B14490A401A60FFF762
:1043E00053FC0300BB6108E0FFF74EFC0200BB6911
:1043F000D31A022B01D903233AE0064B1A68802313
:104400009B041340F0D132E07B685B6A012B11D131
:1044100001232DE000100240FFFEFFFF007000406E
:10442000FFFBFFFF88130000FFFFFFEFFFFFFFFE12
:10443000FFFF02FF104BDB68FB61FA6980235B0220
:104440001A407B689B6A9A420FD1FA69F0239B035A
:104450001A407B68DB6A9A4207D1FA69C0231B04C1
:104460001A407B681B6B9A4201D0012300E00023B5
:104470001800BD460AB0B0BD00100240B0B584B00F
:1044800000AF786039607B68002B01D1012328E1FF
:10449000964B1B68012213403A689A421ED9934BEF
:1044A0001B68012293431900904B3A680A431A6033
:1044B000FFF7EAFB0300FB6009E0FFF7E5FB020002
:1044C000FB68D31A8A4A934201D9032309E1874B37
:1044D0001B68012213403A689A42EED17B681B6840
:1044E0000222134009D0834BDB68F022934319006A
:1044F0007B689A687F4B0A43DA607B681B680122FD
:10450000134000D189E07B685B68022B07D1794BAF
:104510001A6880239B02134020D10123E1E07B68CD
:104520005B68032B07D1734B1A6880239B041340ED
:1045300014D10123D5E07B685B68012B06D16D4B5C
:104540001B680422134009D10123CAE0694B1A6891
:1045500080239B00134001D10123C2E0654BDB683F
:104560000322934319007B685A68624B0A43DA605E
:10457000FFF78AFB0300FB607B685B68022B11D1AD
:1045800009E0FFF781FB0200FB68D31A584A934207
:1045900001D90323A5E0574BDB680C221340082BFD
:1045A000EFD13AE07B685B68032B11D109E0FFF79C
:1045B0006BFB0200FB68D31A4D4A934201D90323D7
:1045C0008FE04C4BDB680C2213400C2BEFD124E026
:1045D0007B685B68012B1BD109E0FFF755FB0200EC
:1045E000FB68D31A424A934201D9032379E0414B35
:1045F000DB680C221340042BEFD10EE0FFF744FBE5
:104600000200FB68D31A3A4A934201D9032368E0B7
:10461000384BDB680C221340F0D1344B1B6801226D
:1046200013403A689A421ED2304B1B6801229343D2
:1046300019002E4B3A680A431A60FFF725FB030066
:10464000FB6009E0FFF720FB0200FB68D31A284A51
:10465000934201D9032344E0244B1B6801221340F9
:104660003A689A42EED17B681B680422134009D055
:10467000204BDB68204A134019007B68DA681D4B29
:104680000A43DA607B681B68082213400AD0194B82
:10469000DB681A4A134019007B681B69DA00154B66
:1046A0000A43DA6000F032F80100124BDB681B09A4
:1046B0000F221340124AD35C0A00DA40114B1A60F1
:1046C000114B1B680B257C191800FFF797FA0300A4
:1046D00023707B191B78002B02D07B191B7800E01C
:1046E00000231800BD4604B0B0BDC0460020024003
:1046F0008813000000100240FFF8FFFFFFC7FFFF14
:104700009CBE0008000000200400002080B586B098
:1047100000AF3C4BDB68FB60FB680C2213400C2BAA
:1047200013D05CD8042B02D0082B0BD057E0354BAC
:104730001B681022134002D0334B3B615DE0334BCA
:104740003B615AE0324B3B6157E0FB689B0C0F2208
:104750001340304AD35CBB60FB689B0D03221340BF
:1047600001337B60274BDA6880235B0213400FD054
:10477000B9680A005201521A93019B1ADB005B18B8
:104780005B0279681800FBF7BFFC03007B6123E044
:104790001C4B1B68102213400FD0B9680A0052014D
:1047A000521A93019B1ADB005B181B0279681800F0
:1047B000FBF7AAFC03007B610EE0B9680A00520116
:1047C000521A93019B1ADB005B189B027968180050
:1047D000FBF79AFC03007B617B693B610DE0094BB1
:1047E0005B685B0B072213403B603B680133802210
:1047F00012029A4013003B61C0463B691800BD4657
:1048000006B080BD0010024000093D000024F40005
:1048100000127A00B4BE000880B500AF024B1B68DE
:104820001800BD4680BDC0460000002080B500AF26
:10483000FFF7F2FF0100064BDB681B0A072213405B
:10484000044AD35CD9400B001800BD4680BDC04669
:1048500000100240ACBE000880B500AFFFF7DCFFDF
:104860000100064BDB68DB0A07221340044AD35CD5
:10487000D9400B001800BD4680BDC0460010024064
:10488000ACBE000880B586B000AF786017203B183A
:1048900000221A707B681B682022134000D1C7E0F9
:1048A0008B4B9A6B80235B05134009D1884B9A6B25
:1048B000874B802149050A439A633B1801221A70ED
:1048C000844B1A6880235B0013401AD1814B1A680D
:1048D000804B802149000A431A60FFF7D5F9030095
:1048E0003B6108E0FFF7D0F902003B69D31A642B63
:1048F00001D90323E8E0774B1A6880235B0013405B
:10490000F0D0734B1A68C0239B031340FB607B6895
:104910005A68C0239B031340FA689A4213D07B68FD
:104920005A68C0239B021A40C0239B029A420AD1B4
:10493000674B1A6880239B021A4080239B029A428D
:1049400001D10123C0E0624B1A6DC0239B021340CA
:10495000FB60FB68002B3BD07B685A68C0239B023E
:104960001340FA689A4233D07B681B6820221340B8
:104970002ED0574B1B6D584A1340FB60544B1A6D99
:10498000534B802109030A431A65514B1A6D504B52
:1049900052490A401A654E4BFA681A65FA68802334
:1049A0005B00134014D0FFF76FF903003B6109E08F
:1049B000FFF76AF902003B69D31A494A934201D9C9
:1049C000032381E0424B1A6D80239B001340EFD0FC
:1049D0007B681B68202213401FD07B685A68C02365
:1049E0009B021A40C0239B029A420CD1384B1B6891
:1049F0003C4A134019007B685A68C0239B031A4045
:104A0000334B0A431A60324B196D7B685A68C023D6
:104A10009B021A402E4B0A431A651723FB181B787A
:104A2000012B05D12A4B9A6B294B2F490A409A63D7
:104A30007B681B680122134009D0254BDB6C0322E5
:104A4000934319007B689A68214B0A43DA647B68B8
:104A50001B680222134009D01D4BDB6C0C229343D0
:104A600019007B68DA681A4B0A43DA647B681B68B2
:104A70000422134009D0164BDB6C1C4A134019006A
:104A80007B681A69124B0A43DA647B681B68082248
:104A9000134009D00E4BDB6C154A134019007B689C
:104AA0005A690B4B0A43DA647B681B688022134007
:104AB00009D0074BDB6C0F4A134019007B689A69D9
:104AC000034B0A43DA6400231800BD4606B080BDDC
:104AD0000010024000700040FFFFFCFFFFFFF7FFE7
:104AE00088130000FFFFCFFFFFFFFFEFFFF3FFFF83
:104AF000FFCFFFFFFFFFF3FF80B586B000AF786008
:104B0000396000237B610023FB6000233B614FE1A0
:104B10003B681B6801217A6991400A001340FB60E1
:104B2000FB68002B00D140E13B685B680322134027
:104B3000012B05D03B685B6803221340022B30D168
:104B40007B689B683B617B695B0003229A40130092
:104B5000DA433B6913403B613B68DA687B695B0081
:104B60009A4013003A6913433B617B683A699A6043
:104B70007B685B683B6101227B699A401300DA43E2
:104B80003B6913403B613B685B681B0901221A408B
:104B90007B699A4013003A6913433B617B683A6929
:104BA0005A603B685B6803221340032B17D07B6875
:104BB000DB683B617B695B0003229A401300DA43A8
:104BC0003B6913403B613B689A687B695B009A4094
:104BD00013003A6913433B617B683A69DA603B68CA
:104BE0005B6803221340022B23D17B69DA087B68C0
:104BF00008329200D3583B617B69072213409B0027
:104C00000F229A401300DA433B6913403B613B6833
:104C10001A697B6907210B409B009A4013003A698F
:104C200013433B617B69DA087B680832920039697B
:104C3000D1507B681B683B617B695B0003229A4013
:104C40001300DA433B6913403B613B685B68032216
:104C50001A407B695B009A4013003A6913433B6139
:104C60007B683A691A603B685A68C0239B0213400C
:104C700000D19AE0544B5A6B534B01210A435A63BB
:104C8000524A7B699B0802339B009B583B617B69BE
:104C9000032213409B000F229A401300DA433B6922
:104CA00013403B617A68A023DB059A4219D07B68E8
:104CB000474A934213D07B68464A93420DD07B68A3
:104CC000454A934207D07B68444A934201D1052369
:104CD00008E0062306E0032304E0022302E00123A8
:104CE00000E000237A6903210A40920093403A6968
:104CF00013433B6135497B699B0802339B003A694A
:104D00005A50374B9B683B61FB68DA433B69134061
:104D10003B613B685A6880235B03134003D03A69C8
:104D2000FB6813433B612E4B3A699A602C4BDB685E
:104D30003B61FB68DA433B6913403B613B685A685F
:104D400080239B03134003D03A69FB6813433B6104
:104D5000234B3A69DA60224B5B683B61FB68DA43BC
:104D60003B6913403B613B685A6880239B021340B8
:104D700003D03A69FB6813433B61194B3A695A60A7
:104D8000174B1B683B61FB68DA433B6913403B618F
:104D90003B685A6880235B02134003D03A69FB6882
:104DA00013433B610E4B3A691A607B6901337B61A7
:104DB0003B681A687B69DA40131E00D0A8E6C0463B
:104DC000C046BD4606B080BD001002400000014054
:104DD0000004005000080050000C0050001C00505F
:104DE0000004014080B584B000AF78600A00BB1CAD
:104DF0001A807B681B69BA1C1288134004D00F23E9
:104E0000FB1801221A7003E00F23FB1800221A700E
:104E10000F23FB181B781800BD4604B080BD80B579
:104E200082B000AF786008001100BB1C021C1A8021
:104E30007B1C0A1C1A707B1C1B78002B04D0BB1C2B
:104E40001A887B689A6103E0BB1C1A887B689A62A7
:104E5000C046BD4602B080BD80B584B000AF78606A
:104E60007B68002B01D1012361E07B681B68324A1B
:104E70009446634414211800FBF746F903009A0096
:104E80007B685A647B682D4A1A647B68252202215C
:104E900099547B681B681B68FB60FB68284A1340B9
:104EA000FB607B689A687B68DB681A437B681B69D8
:104EB0001A437B685B691A437B689B691A437B686A
:104EC000DB691A437B681B6A1343FA681343FB6070
:104ED0007B681B68FA681A607B689A688023DB012C
:104EE0009A4218D0174B1A687B685B6C1C210B40E8
:104EF0000F2199400B00D943124B0A401A60114B05
:104F000019687B685A687B685B6C1C2003409A4078
:104F10000C4B0A431A607B680022DA637B68252207
:104F2000012199547B682422002199540023180000
:104F3000BD4604B080BDC046F8FFFDBF0000024082
:104F40000F80FFFFA800024080B586B000AFF86078
:104F5000B9607A603B601723FB1800221A70FB6867
:104F600024229B5C012B01D102234FE0FB68242209
:104F700001219954FB6825229B5CDBB2012B3AD1BD
:104F8000FB68252202219954FB680022DA63FB6842
:104F90001B681A68FB681B6801218A431A603B681A
:104FA0007A68B968F86800F074F9FB681B6B002B2D
:104FB00008D0FB681B681A68FB681B680E210A434F
:104FC0001A600FE0FB681B681A68FB681B68042105
:104FD0008A431A60FB681B681A68FB681B680A2111
:104FE0000A431A60FB681B681A68FB681B6801218A
:104FF0000A431A6007E0FB68242200219954172312
:10500000FB1802221A701723FB181B781800BD46E4
:1050100006B080BD80B584B000AF78600F23FB1868
:1050200000221A707B6825229B5CDBB2022B08D021
:105030007B680422DA637B682422002199540123CF
:1050400024E07B681B681A687B681B680E218A4312
:105050001A607B681B681A687B681B6801218A4399
:105060001A607B685B6C1C221A407B681B6C0121F8
:1050700091400A005A607B682522012199547B687F
:105080002422002199540F23FB181B781800BD46D9
:1050900004B080BD80B584B000AF78600F217B186C
:1050A00000221A707B6825229B5CDBB2022B06D0A3
:1050B0007B680422DA637B1801221A702AE07B687D
:1050C0001B681A687B681B680E218A431A607B681C
:1050D0001B681A687B681B6801218A431A607B6819
:1050E0005B6C1C221A407B681B6C012191400A00FA
:1050F0005A607B682522012199547B682422002173
:1051000099547B689B6B002B04D07B689B6B7A68FF
:10511000100098470F23FB181B781800BD4604B0F9
:1051200080BD80B584B000AF78607B681B6C1B6865
:10513000FB607B681B681B68BB607B685B6C1C2228
:10514000134004229A401300FA68134026D0BB682B
:105150000422134022D07B681B681B682022134066
:1051600007D17B681B681A687B681B6804218A4327
:105170001A607B685B6C1C221A407B681B6C0421E4
:1051800091400A005A607B681B6B002B00D171E0D4
:105190007B681B6B7A68100098476BE07B685B6CE0
:1051A0001C22134002229A401300FA6813402DD0AB
:1051B000BB680222134029D07B681B681B68202231
:1051C00013400BD17B681B681A687B681B680A2137
:1051D0008A431A607B682522012199547B685B6CA5
:1051E0001C221A407B681B6C022191400A005A6005
:1051F0007B682422002199547B68DB6A002B39D01C
:105200007B68DB6A7A681000984733E07B685B6CE8
:105210001C22134008229A401300FA6813402AD037
:10522000BB680822134026D07B681B681A687B681D
:105230001B680E218A431A607B685B6C1C221A4033
:105240007B681B6C012191400A005A607B68012237
:10525000DA637B682522012199547B68242200218E
:1052600099547B685B6B002B05D07B685B6B7A681D
:1052700010009847C046C046BD4604B080BD80B50A
:1052800082B000AF78607B68DB6B1800BD4602B06F
:1052900080BD80B584B000AFF860B9607A603B60D3
:1052A000FB685B6C1C221A40FB681B6C012191405F
:1052B0000A005A60FB681B683A685A60FB689B6882
:1052C000102B08D1FB681B687A689A60FB681B6822
:1052D000BA68DA6007E0FB681B68BA689A60FB6826
:1052E0001B687A68DA60C046BD4604B080BD000025
:1052F00080B582B000AF0200FB1D1A70FB1D1B7849
:105300007F2B09D8FB1D1B781A001F231A40044B62
:10531000012191400A001A60C046BD4602B080BD1E
:1053200000E100E090B583B000AF02003960FB1DE2
:105330001A70FB1D1B787F2B28D82F4AFB1D1B786A
:105340005BB29B08C0339B009B58FA1D127811007A
:1053500003220A40D200FF2191400A00D2431A40A2
:1053600011003B689B01FF221A40FB1D1B781800AF
:1053700003230340DB009A401F48FB1D1B785BB2F0
:105380009B080A43C0339B001A5031E01B4AFB1DA7
:105390001B7819000F230B40083B9B0806339B002A
:1053A000D31804331B68FA1D1278110003220A4037
:1053B000D200FF2191400A00D2431A4011003B68FD
:1053C0009B01FF221A40FB1D1B781800032303409A
:1053D000DB009A400948FB1D1B781C000F2323406B
:1053E000083B9B080A4306339B00C31804331A602A
:1053F000C046BD4603B090BD00E100E000ED00E016
:1054000080B582B000AF78607B685A1E80235B0451
:105410009A4201D3012310E00A4B7A68013A5A609C
:1054200001235B4203211800FFF77CFF054B00229C
:105430009A60044B07221A6000231800BD4602B090
:1054400080BDC04610E000E080B584B000AFB96018
:105450007A600F217B18021C1A70BA687B181B78BF
:105460005BB211001800FFF75DFFC046BD4604B0F7
:1054700080BD80B582B000AF0200FB1D1A70FB1D1D
:105480001B785BB21800FFF733FFC046BD4602B081
:1054900080BD80B582B000AF78607B681800FFF7F0
:1054A000AFFF03001800BD4602B080BD80B582B0DA
:1054B00000AF78607B68002B01D1012332E07B686C
:1054C00039229B5CDBB2002B07D17B68382200219C
:1054D00099547B68180003F095FB7B683922022100
:1054E00099547B681A687B6804331900100000F037
:1054F00025FB7B683E22012199547B683A220121D9
:1055000099547B683B22012199547B683C220121FC
:1055100099547B683D22012199547B6839220121ED
:10552000995400231800BD4602B080BD80B584B0F8
:1055300000AF78607B6839229B5CDBB2012B01D025
:10554000012336E07B683922022199547B681B686D
:10555000DA687B681B6801210A43DA607B681A6895
:105560008023DB059A4209D07B681B68134A93426B
:1055700004D07B681B68124A934211D17B681B6878
:105580009B6807221340FB60FB68062B10D07B68EA
:105590001B681A687B681B6801210A431A6007E0D0
:1055A0007B681B681A687B681B6801210A431A60C4
:1055B00000231800BD4604B080BDC046000801406D
:1055C0000014014080B582B000AF78607B68002B8A
:1055D00001D1012332E07B6839229B5CDBB2002BD6
:1055E00007D17B683822002199547B68180003F0AA
:1055F000B5FA7B683922022199547B681A687B6866
:1056000004331900100000F099FA7B683E22012152
:1056100099547B683A22012199547B683B220121ED
:1056200099547B683C22012199547B683D220121D9
:1056300099547B6839220121995400231800BD46F2
:1056400002B080BD80B584B000AF786039603B683F
:10565000002B08D17B683A229B5CDBB2013B5A1ECF
:105660009341DBB21FE03B68042B08D17B683B22EF
:105670009B5CDBB2013B5A1E9341DBB213E03B68FB
:10568000082B08D17B683C229B5CDBB2013B5A1E95
:105690009341DBB207E07B683D229B5CDBB2013BC0
:1056A0005A1E9341DBB2002B01D001234DE03B6831
:1056B000002B04D17B683A220221995413E03B6805
:1056C000042B04D17B683B22022199540BE03B68F8
:1056D000082B04D17B683C220221995403E07B68AB
:1056E0003D22022199547B681B6839680122180009
:1056F00000F082FB7B681A688023DB059A4209D0A0
:105700007B681B68134A934204D07B681B68124A6B
:10571000934211D17B681B689B6807221340FB6092
:10572000FB68062B10D07B681B681A687B681B68B7
:1057300001210A431A6007E07B681B681A687B68CE
:105740001B6801210A431A6000231800BD4604B0FB
:1057500080BDC046000801400014014080B582B001
:1057600000AF786039607B681B68396800221800D8
:1057700000F042FB7B681B681B6A164A134007D186
:105780007B681B681A687B681B6801218A431A6062
:105790003B68002B04D17B683A220121995413E025
:1057A0003B68042B04D17B683B22012199540BE018
:1057B0003B68082B04D17B683C220121995403E00B
:1057C0007B683D220121995400231800BD4602B098
:1057D00080BDC0461111000080B584B000AF786074
:1057E0007B681B68DB68FB607B681B681B69BB60B0
:1057F000BB680222134021D0FB68022213401DD057
:105800007B681B68032252421A617B6801221A7668
:105810007B681B689B690322134004D07B681800D7
:1058200000F074F907E07B68180000F067F97B6806
:10583000180000F073F97B6800221A76BB68042216
:10584000134022D0FB68042213401ED07B681B68E3
:10585000052252421A617B6802221A767B681B6815
:105860009A69C0239B00134004D07B68180000F0A5
:105870004DF907E07B68180000F040F97B681800DC
:1058800000F04CF97B6800221A76BB6808221340AE
:1058900021D0FB68082213401DD07B681B680922B9
:1058A00052421A617B6804221A767B681B68DB69A6
:1058B0000322134004D07B68180000F027F907E0AA
:1058C0007B68180000F01AF97B68180000F026F9D0
:1058D0007B6800221A76BB681022134022D0FB6836
:1058E000102213401ED07B681B68112252421A619D
:1058F0007B6808221A767B681B68DA69C0239B00E4
:10590000134004D07B68180000F000F907E07B68C2
:10591000180000F0F3F87B68180000F0FFF87B68CF
:1059200000221A76BB68012213400CD0FB680122CA
:10593000134008D07B681B68022252421A617B68C0
:10594000180003F097F9BB68402213400CD0FB68A5
:105950004022134008D07B681B68412252421A61E2
:105960007B68180000F0E2F8C046BD4604B080BD78
:1059700080B586B000AFF860B9607A601723FB1875
:1059800000221A70FB6838229B5C012B01D1022394
:10599000ADE0FB683822012199547B680C2B00D1C3
:1059A00076E07B680C2B00D995E07B68082B4ED005
:1059B0007B68082B00D98EE07B68002B03D07B68C6
:1059C000042B21D087E0FB681B68BA68110018001F
:1059D00000F00EF9FB681B689A69FB681B680821D8
:1059E0000A439A61FB681B689A69FB681B6804217B
:1059F0008A439A61FB681B689969BB68DA68FB682F
:105A00001B680A439A616BE0FB681B68BA68110067
:105A1000180000F029F9FB681B689A69FB681B688D
:105A2000802109010A439A61FB681B689A69FB6837
:105A30001B6831490A409A61FB681B689969BB6819
:105A4000DB681A02FB681B680A439A6148E0FB683E
:105A50001B68BA681100180000F048F9FB681B6861
:105A6000DA69FB681B6808210A43DA61FB681B6876
:105A7000DA69FB681B6804218A43DA61FB681B68EA
:105A8000D969BB68DA68FB681B680A43DA6127E0FA
:105A9000FB681B68BA681100180000F067F9FB6822
:105AA0001B68DA69FB681B68802109010A43DA6117
:105AB000FB681B68DA69FB681B680F490A40DA61FA
:105AC000FB681B68D969BB68DB681A02FB681B6846
:105AD0000A43DA6104E01723FB1801221A70C0465A
